/**
 * Verbose raw transaction fixture
 *
 * @return Object
 */
module.exports = function getRawTransactionFixture() {
  return {
    txid: 'f1c1cbc37b5d5543eeb126a53de7863ea2b9d5dbd03b981337bbda76cc6d771c',
    version: 2,
    type: 0,
    size: 817,
    locktime: 34623,
    vin: [
      {
        txid: '3b8c0ef5f91c330f236f869eba2904432f03d1a3ab969882dae6f9417e77c760',
        vout: 1,
        scriptSig: {
          asm: '3045022100cab5638d1498930dcc88047ba0c44b952988c390cd66e643de7b975b62170be40220181ede94c41ded6d83b586ce90e195ed09ad4c6b9dfcb76bc07fbba7b5e89e51[ALL] 03a65caff6ca4c0415a3ac182dfc2a6d3a4dceb98e8b831e71501df38aa156f2c1',
          hex: '483045022100cab5638d1498930dcc88047ba0c44b952988c390cd66e643de7b975b62170be40220181ede94c41ded6d83b586ce90e195ed09ad4c6b9dfcb76bc07fbba7b5e89e51012103a65caff6ca4c0415a3ac182dfc2a6d3a4dceb98e8b831e71501df38aa156f2c1',
        },
        value: 100.00000788,
        valueSat: 10000000788,
        address: 'yNPbcFfabtNmmxKdGwhHomdYfVs6gikbPf',
        sequence: 4294967294,
      },
      {
        txid: '8ba79ebf35b55eed79601b17ec1c32ee5af592554fc3b6e5ff5fdc4d39854546',
        vout: 0,
        scriptSig: {
          asm: '3045022100ecda52ffb4500b7e593bf6a1d1f7a5b7303acf3a20b58c1cb0200b34a523d1d902203295bfb668e69b79275ed03335a8652d7687012227ac492a12cf9d29c1f7a7cc[ALL] 03a65caff6ca4c0415a3ac182dfc2a6d3a4dceb98e8b831e71501df38aa156f2c1',
          hex: '483045022100ecda52ffb4500b7e593bf6a1d1f7a5b7303acf3a20b58c1cb0200b34a523d1d902203295bfb668e69b79275ed03335a8652d7687012227ac492a12cf9d29c1f7a7cc012103a65caff6ca4c0415a3ac182dfc2a6d3a4dceb98e8b831e71501df38aa156f2c1',
        },
        value: 11.25005000,
        valueSat: 1125005000,
        address: 'yNPbcFfabtNmmxKdGwhHomdYfVs6gikbPf',
        sequence: 4294967294,
      },
      {
        txid: '9b192afc29f4b85795e6bdf829d6b7aa763915dea10b2cb21f23aafc0b3fb042',
        vout: 0,
        scriptSig: {
          asm: '3045022100ddb49494296712b6f2db5031512d11dd470d338af010088fec65ed398cec0afe0220285d4b7d8a2b3ea0a18fa9d6fe375b401e8f6ae98281a1c3f1a9bd3742840702[ALL] 03a65caff6ca4c0415a3ac182dfc2a6d3a4dceb98e8b831e71501df38aa156f2c1',
          hex: '483045022100ddb49494296712b6f2db5031512d11dd470d338af010088fec65ed398cec0afe0220285d4b7d8a2b3ea0a18fa9d6fe375b401e8f6ae98281a1c3f1a9bd3742840702012103a65caff6ca4c0415a3ac182dfc2a6d3a4dceb98e8b831e71501df38aa156f2c1',
        },
        value: 11.25005000,
        valueSat: 1125005000,
        address: 'yNPbcFfabtNmmxKdGwhHomdYfVs6gikbPf',
        sequence: 4294967294,
      },
      {
        txid: 'f5b471fbdacd35de483d029f4e9b4237e9fb3244d184e530c381a6961cc047be',
        vout: 0,
        scriptSig: {
          asm: '3045022100ccf54a31a262e5ed9e58e1fa6c23938b81fd79dd62a1057f841e255a64a0e06c0220138773e3f5dd77b0bc1d1f1d01110b1b93741f631c177e7936c335dbaa19686f[ALL] 03a65caff6ca4c0415a3ac182dfc2a6d3a4dceb98e8b831e71501df38aa156f2c1',
          hex: '483045022100ccf54a31a262e5ed9e58e1fa6c23938b81fd79dd62a1057f841e255a64a0e06c0220138773e3f5dd77b0bc1d1f1d01110b1b93741f631c177e7936c335dbaa19686f012103a65caff6ca4c0415a3ac182dfc2a6d3a4dceb98e8b831e71501df38aa156f2c1',
        },
        value: 11.25005000,
        valueSat: 1125005000,
        address: 'yNPbcFfabtNmmxKdGwhHomdYfVs6gikbPf',
        sequence: 4294967294,
      },
      {
        txid: 'fa3759df9830aed2aa59d41f825eec5ba2aa58dc99d377b28488a92997a8cfb7',
        vout: 0,
        scriptSig: {
          asm: '304402200b035f016087a5468cd27f9575fb496aaeaf2c454c8bb402c3624c20bdd4448f022015a23433ad620ea7c5ff92a8198262c66a20595902ddc4141722396ecadc07ca[ALL] 02a1dc26a61b5ed6fbecd4c0fe65b7dd8c637eee7cfce759cd0c55f83b6d9680b9',
          hex: '47304402200b035f016087a5468cd27f9575fb496aaeaf2c454c8bb402c3624c20bdd4448f022015a23433ad620ea7c5ff92a8198262c66a20595902ddc4141722396ecadc07ca012102a1dc26a61b5ed6fbecd4c0fe65b7dd8c637eee7cfce759cd0c55f83b6d9680b9',
        },
        value: 6.82471210,
        valueSat: 682471210,
        address: 'yc1C9TTSwXmN59rxpP5fKvtvrQa6MWVzaf',
        sequence: 4294967294,
      },
    ],
    vout: [
      {
        value: 3.55976180,
        valueSat: 355976180,
        n: 0,
        scriptPubKey: {
          asm: 'OP_DUP OP_HASH160 ad56adfd39caf20673de73b9eae51352e730a2f2 OP_EQUALVERIFY OP_CHECKSIG',
          hex: '76a914ad56adfd39caf20673de73b9eae51352e730a2f288ac',
          reqSigs: 1,
          type: 'pubkeyhash',
          addresses: [
            'yc7yaznKps1rXWovLMXcMRQfc2AZUxoB3C',
          ],
        },
        spentTxId: 'b53f8b9a47e3af0491205c3d60689fed8d6d750bcfe9f1731a061f469c4f4e82',
        spentIndex: 17,
        spentHeight: 34899,
      },
      {
        value: 137.01510000,
        valueSat: 13701510000,
        n: 1,
        scriptPubKey: {
          asm: 'OP_DUP OP_HASH160 b9e06afc1400f95eaffce11e51e58b0a8390e88b OP_EQUALVERIFY OP_CHECKSIG',
          hex: '76a914b9e06afc1400f95eaffce11e51e58b0a8390e88b88ac',
          reqSigs: 1,
          type: 'pubkeyhash',
          addresses: [
            'ydGGhXC6PXoBvUhG9rxs2LmriuEHdsjt4A',
          ],
        },
      },
    ],
    hex: '020000000560c7777e41f9e6da829896aba3d1032f430429ba9e866f230f331cf9f50e8c3b010000006b483045022100cab5638d1498930dcc88047ba0c44b952988c390cd66e643de7b975b62170be40220181ede94c41ded6d83b586ce90e195ed09ad4c6b9dfcb76bc07fbba7b5e89e51012103a65caff6ca4c0415a3ac182dfc2a6d3a4dceb98e8b831e71501df38aa156f2c1feffffff464585394ddc5fffe5b6c34f5592f55aee321cec171b6079ed5eb535bf9ea78b000000006b483045022100ecda52ffb4500b7e593bf6a1d1f7a5b7303acf3a20b58c1cb0200b34a523d1d902203295bfb668e69b79275ed03335a8652d7687012227ac492a12cf9d29c1f7a7cc012103a65caff6ca4c0415a3ac182dfc2a6d3a4dceb98e8b831e71501df38aa156f2c1feffffff42b03f0bfcaa231fb22c0ba1de153976aab7d629f8bde69557b8f429fc2a199b000000006b483045022100ddb49494296712b6f2db5031512d11dd470d338af010088fec65ed398cec0afe0220285d4b7d8a2b3ea0a18fa9d6fe375b401e8f6ae98281a1c3f1a9bd3742840702012103a65caff6ca4c0415a3ac182dfc2a6d3a4dceb98e8b831e71501df38aa156f2c1feffffffbe47c01c96a681c330e584d14432fbe937429b4e9f023d48de35cddafb71b4f5000000006b483045022100ccf54a31a262e5ed9e58e1fa6c23938b81fd79dd62a1057f841e255a64a0e06c0220138773e3f5dd77b0bc1d1f1d01110b1b93741f631c177e7936c335dbaa19686f012103a65caff6ca4c0415a3ac182dfc2a6d3a4dceb98e8b831e71501df38aa156f2c1feffffffb7cfa89729a98884b277d399dc58aaa25bec5e821fd459aad2ae3098df5937fa000000006a47304402200b035f016087a5468cd27f9575fb496aaeaf2c454c8bb402c3624c20bdd4448f022015a23433ad620ea7c5ff92a8198262c66a20595902ddc4141722396ecadc07ca012102a1dc26a61b5ed6fbecd4c0fe65b7dd8c637eee7cfce759cd0c55f83b6d9680b9feffffff02f4c33715000000001976a914ad56adfd39caf20673de73b9eae51352e730a2f288ac7073ac30030000001976a914b9e06afc1400f95eaffce11e51e58b0a8390e88b88ac3f870000',
    blockhash: '000000e256b0ea8983f076771f019ebf4a6112f5c85396eab7f3e0660e9685c3',
    height: 34624,
    confirmations: 4607,
    time: 1588755748,
    blocktime: 1588755748,
    instantlock: true,
    instantlock_internal: false,
    chainlock: true,
  };
};
